:100000000C942A000C9447000C9447000C94470071
:100010000C9447000C9447000C9447000C94470044
:100020000C9447000C9447000C9447000C94470034
:100030000C9447000C9447000C9447000C94470024
:100040000C9447000C9447000C9447000C94470014
:100050000C94470011241FBECFE5D4E0DEBFCDBF16
:1000600010E0A0E6B0E0E8EFFAE002C005900D92E3
:10007000AA36B107D9F710E0AAE6B0E001C01D9298
:10008000A737B107E1F70E94CE000C947A050C94D3
:10009000000067397A40E9F4FC0122A521111BC058
:1000A00045A556A523A530E0322F222784A5B90106
:1000B000680F711DCB01892B81F4242F30E0322F82
:1000C0002227250F311D81E02536310538F080E0EB
:1000D000089580E0089580E0089580E008958823E1
:1000E000A1F0929A00000000000000000000000053
:1000F00000000000000000009298000000000000D6
:1001000000000000000000000895929A0000000026
:1001100000000000929800000000000000000000B5
:100120000000000000000895CF93C82F881F882783
:10013000881F0E946F00C6FB882780F90E946F000D
:10014000C5FB882780F90E946F00C4FB882780F9CF
:100150000E946F00C3FB882780F90E946F00C2FBDA
:10016000882780F90E946F00C1FB882780F90E94D0
:100170006F008C2F81700E946F00CF910895CF93F4
:10018000DF93EC0188810E94940089810E94940091
:100190008A810E949400DF91CF910895CF93DF93DD
:1001A000CDB7DEB7C359D1400FB6F894DEBF0FBE4E
:1001B000CDBFB99ABB9ABA9A60E670E084E690E047
:1001C0000E9459058A9AD12C10E06894BB24B3F898
:1001D000C12C7E0182EAE81A8EEFF80A01C0D3949E
:1001E000193C20F0C19AC398C29802C0C198C29A23
:1001F00060E971E0CE0101960E940E05892B51F451
:100200001F3F09F01F5FEFE1F3E03197F1F700C006
:100210000000E6CFBE016E567E4FCE0101960E94D1
:100220004605882349F1CE56DE4F68817981C2594F
:10023000D140CE0101960E9449008823E9F08E0149
:100240000E5C1F4FF801329780810E949400F801E4
:10025000319780810E949400F80180810E9494006F
:100260000D5F1F4F0E151F0569F787EC90E0019792
:10027000F1F700C000001C2D92E39D1508F0AFCFF0
:1002800088B38B2588BBDC2CABCFFB01AAE6B0E0A2
:10029000AB014C5F5F4F21912D93E417F507D9F720
:1002A000FC01AEE6B0E09C012A5F3F4F91919D9327
:1002B000E217F307D9F70895CF92DF92EF92FF92FA
:1002C0000F931F93CF93DF938C01DB01413061F4D7
:1002D0006B0188E0C81AD108E12CF12CE1E1CE0EC7
:1002E000D11CE11CF11C11C0423061F46B01F8E03B
:1002F000CF1AD108E12CF12C86E0C80ED11CE11CEC
:10030000F11C03C0C12CD12C7601A230B10508F13B
:10031000F80131969D01EF012197488150E060E09E
:1003200070E0762F652F542F44278081482BC40E10
:10033000D51EE61EF71E22503109329622303105B5
:1003400050F7CD0102978E7F0296080F191FA170FA
:10035000BB27AB2B69F0F801808190E0A0E0B0E012
:10036000BA2FA92F982F8827C80ED91EEA1EFB1E68
:10037000A70166277727411551056105710571F0C1
:10038000EE24FF24C40ED51EE61EF71EA701662725
:100390007727411551056105710591F7C6018095D3
:1003A0009095DF91CF911F910F91FF90EF90DF908B
:1003B000CF90089569327105C8F0FC01248528307A
:1003C000B9F425852630B1F436A120916A003213A4
:1003D00013C0B796ABE6B0E08A9631912D913213F7
:1003E0000DC0E817F907C9F781E0089580E0089586
:1003F00080E0089580E0089580E0089580E0089509
:10040000CF93DF93FC016A327105E0F08485883078
:10041000D9F4858581111AC096859534C1F4268D4D
:1004200090916A00291313C0DF015F96CBE6D0E0FC
:10043000B2962D91999129130AC0AE17BF07C9F73B
:1004400081E005C080E003C080E001C080E0DF9172
:10045000CF910895CF93DF93FC01CEE6D0E09C01CD
:100460002A5F3F4FD9018C91819389918D93E21737
:10047000F307C9F7DF91CF910895CF93DF93EC0194
:10048000188E198E80E48C8B1D8A8E8B40E064E17F
:1004900070E0CE010E960E945C01988F898FDF91EB
:1004A000CF910895CF93DF939C01DC015E96CAE65D
:1004B000D0E0FC017A96AC014E5D5F4F90819D9338
:1004C00099919193A417B507C9F7C9010E943D02FC
:1004D000DF91CF9108950F931F93CF93DF938C01FA
:1004E0000E942A02E8011C8A82E08D8BD801909636
:1004F0002EE630E0F8017696A8014A5D5F4F8081D4
:100500008D93E90189919E018193A417B507B9F7ED
:10051000AAE6B0E0F8017C969801265D3F4F808105
:10052000EA018993AE018D918193C217D307B9F780
:10053000B8018AE290E00E94BE04DF91CF911F9142
:100540000F9108950F931F93CF93DF93EC018B01CD
:100550000E942A02CE010E9452021AA29CA1983F38
:1005600018F02DA12F5F2DA3985F9CA3BE01C80199
:100570000E94BE04DF91CF911F910F910895C498FE
:10058000962F6F71862B8FB9779BFECF1FB8779B05
:10059000FECF99231CF41FB8779BFECFC49A8FB16E
:1005A0000895C4986F71862B8FB9779BFECF4FB992
:1005B000779BFECFC49A0895FB01C4982AE32FB914
:1005C000779BFECF009761F0DF01A80FB91F1FB81E
:1005D000779BFECF9FB19193EA17FB07C1F701C04C
:1005E000DF011C92C49A0895FB01C4982AE72FB931
:1005F000779BFECF08C09F01280F391F91919FB9AB
:10060000779BFECF03C00097B1F703C0E217F30753
:10061000A9F7C49A08951F93CF93DF93182F1076EC
:10062000C12FD0E02091760030E0C217D307B1F09F
:1006300043E06FE180EA0E94D102AE0155954795F3
:100640005595479555954795559547955595479592
:100650006FE180E80E94D10210937600DF91CF9184
:100660001F910895CF93C82F0E940B036C2F80E039
:100670000E94BF02CF910895CF93DF93C82FD62F4A
:100680000E940B034D2F6C2F80E40E94D102DF915A
:10069000CF910895682F84ED0E943C0361E082EDC4
:1006A0000E943C0380E58A95F1F78AEE0E943203AE
:1006B00080FDFBCF60E082ED0E943C0389ED0E944B
:1006C000320390E00895CF93DF93D62FC72F682F82
:1006D00084ED0E943C036D2F86ED0E943C036C2F3D
:1006E00087ED0E943C0303C080E58A95F1F78AEE0E
:1006F0000E94320380FDF8CFDF91CF910895682FDB
:10070000677085E70E943C030895CF93DF93EC0167
:10071000BC9AC49A87B3806A87BBBE98C598C798AD
:1007200080E58DB9709A4FEF60E08FEF0E94D102A3
:100730008DEC8A95F1F7109275001092740060E0CC
:1007400088E00E943C0360E089E00E943C0360E096
:100750008CE00E943C0360E08DE00E943C036EEF61
:100760008AE00E943C0369E18BE00E943C036FEF4A
:1007700084E00E943C0369E185E00E943C036FEF46
:1007800086E00E943C036FE187E00E943C0360EB3F
:1007900088E30E943C036FE388E20E943C0360E32D
:1007A00089E20E943C0369EF80E30E943C0367EF0B
:1007B00081E30E943C036DE080EC0E943C0360E01A
:1007C00081EC0E943C0342E362EC80E80E94D1028B
:1007D00062E186EC0E943C036CE087EC0E943C03E3
:1007E00062E184EC0E943C036CED8AEC0E943C03C5
:1007F00065E08BEC0E943C03688184EE0E943C0320
:10080000698185EE0E943C036A8182EE0E943C036E
:100810006B8183EE0E943C036C8180EE0E943C035E
:100820006D8181EE0E943C0360E071E080E10E94F6
:1008300063038FE10E940B0340EC6BE180E80E94B0
:10084000D10244E06FE180E80E94D102DF91CF91B4
:10085000089589E30E94320391E0811101C090E084
:10086000892F0895AF92BF92CF92DF92EF92FF92BD
:100870000F931F93CF93DF936C017B0189E30E9459
:100880003203882309F46DC060917400C091750033
:1008900080E00E943C036C2F81E00E943C0360E0FA
:1008A0008AE30E94BF02C82F60E08AE30E94BF0271
:1008B000D0E0D82BD0937500C093740060E08AE339
:1008C0000E94BF02B82E60E08AE30E94BF02A82EF9
:1008D00060E08AE30E94BF02082F60E08AE30E9482
:1008E000BF0207FF11C081E0C81AD1080B2D10E02C
:1008F0001A2904501109C016D10608F48601B7015F
:10090000C8010E94DC0202C000E010E06C2F8CE005
:100910000E943C036D2F8DE00E943C037E0181E02C
:10092000E81AF1088FEFE81689E1F80648F06EEF53
:100930008CE00E943C0369E18DE00E943C0309C009
:100940006C2F61508CE00E943C036F2D8DE00E9463
:100950003C0340E46EE180E80E94D102802F912F99
:1009600002C080E090E0DF91CF911F910F91FF9046
:10097000EF90DF90CF90BF90AF9008950F931F93AB
:10098000CF93DF93EC018B010FC08CE10E94320307
:1009900081FF0AC040E86FE180E80E94D10240E890
:1009A0006FE180EA0E94D1026FE180E00E94BF0205
:1009B00083FDEBCF6FEF82E00E943C0369E183E0AF
:1009C0000E943C036C2F615086E00E943C03CE01E4
:1009D0008150964E692F87E00E943C0340E060E022
:1009E0008AE70E94D102B801CE010E94F40248E0D9
:1009F0006FE180E80E94D102DF91CF911F910F91AA
:100A0000089582E70E943203089581E10E944A031B
:100A100021E0892B09F420E0822F08950F931F9382
:100A2000CF93DF93EC01CB01BE010E9432048C0115
:100A3000009711F1BC01CE010E94DA01882331F048
:100A4000CE010E946B0280E090E01BC08F89813054
:100A500051F48AA1883039F4B801CE010E94A20273
:100A600080E090E00EC0B801CE010E940002882311
:100A700031F0802F912F05C080E090E002C080E02F
:100A800090E0DF91CF911F910F910895FC0127898C
:100A9000213169F424A130E0322F222785A1A90158
:100AA000480F511DFB015183408381E0089580E090
:100AB00008950F931F93CF93DF93EC018B010E9456
:100AC000850382E00E947F0385E38A95F1F70000A9
:100AD00062E477E384E10E94630385E38A95F1F79A
:100AE0000000B801CE010E944501DF91CF911F9116
:080AF0000F910895F894FFCF67
:0A0AF800C0A8005D4C454D485404B1
:00000001FF
